:100000000C945C000C946E000C946E000C946E00CA
:100010000C946E000C946E000C946E000C946E00A8
:100020000C946E000C946E000C946E000C946E0098
:100030000C946E000C946E000C946E000C946E0088
:100040000C9439010C946E000C946E000C946E00AC
:100050000C946E000C946E000C946E000C946E0068
:100060000C946E000C946E00000000080002010069
:100070000003040700000000000000000000000072
:10008000250028002B0000000000240027002A0083
:10009000040404040404040402020202020203032E
:1000A0000303030301020408102040800102040836
:1000B000102001020408102011241FBECFEFD8E049
:1000C000DEBFCDBF21E0A0E0B1E001C01D92AB30AA
:1000D000B207E1F70E9483010C94F2010C94000036
:1000E00090E0FC01EC55FF4F2491FC01E057FF4FDD
:1000F0008491882399F090E0880F991FFC01EA57BA
:10010000FF4FA591B491FC01E458FF4F8591949164
:100110008FB7F894EC91E22BEC938FBF089590E0A9
:10012000FC01E859FF4F2491FC01EC55FF4F34913D
:10013000FC01E057FF4FE491EE2309F43CC0222379
:1001400039F1233091F038F42130A9F0223001F553
:1001500084B58F7D12C0273091F02830A1F0243073
:10016000B9F4809180008F7D03C0809180008F77EB
:10017000809380000DC084B58F7784BD09C08091C5
:10018000B0008F7703C08091B0008F7D8093B00066
:10019000F0E0EE0FFF1FE458FF4FA591B4919FB719
:1001A000F894611104C08C913095382302C0EC9111
:1001B0003E2B3C939FBF08953FB7F8948091070171
:1001C00090910801A0910901B0910A0126B5A89B60
:1001D00005C02F3F19F00196A11DB11D3FBFBA2FD9
:1001E000A92F982F8827820F911DA11DB11DBC0139
:1001F000CD0142E0660F771F881F991F4A95D1F7FE
:1002000008958F929F92AF92BF92CF92DF92EF921A
:10021000FF920E94DC004B015C018CE2C82EDD24C1
:10022000D394E12CF12C0E94DC00DC01CB01881975
:100230009909AA09BB09883E9340A105B10598F325
:1002400021E0C21AD108E108F10888EE880E83E0A7
:10025000981EA11CB11CC114D104E104F10419F7CA
:10026000FF90EF90DF90CF90BF90AF909F908F90D6
:1002700008951F920F920FB60F9211242F933F9360
:100280008F939F93AF93BF9380910301909104014B
:10029000A0910501B09106013091020123E0230FE6
:1002A0002D3720F40196A11DB11D05C026E8230FAE
:1002B0000296A11DB11D209302018093030190932A
:1002C0000401A0930501B09306018091070190916C
:1002D0000801A0910901B0910A010196A11DB11D6B
:1002E0008093070190930801A0930901B0930A013C
:1002F000BF91AF919F918F913F912F910F900FBE22
:100300000F901F901895789484B5826084BD84B551
:10031000816084BD85B5826085BD85B5816085BD00
:1003200080916E00816080936E00109281008091B8
:100330008100826080938100809181008160809340
:100340008100809180008160809380008091B10065
:1003500084608093B1008091B00081608093B00090
:1003600080917A00846080937A0080917A00826024
:1003700080937A0080917A00816080937A008091E6
:100380007A00806880937A001092C1008CE080939C
:1003900000018BE0809301018CE00E9470008BE0F3
:1003A0000E94700000E010E0D091010161E08D2F0B
:1003B0000E948F00C091000160E08C2F0E948F008E
:1003C0000E94010160E08D2F0E948F0061E08C2F60
:1003D0000E948F000E9401010115110529F30E945E
:0803E0000000E2CFF894FFCF0A
:00000001FF
